:020000040040BA
:20000000A00E0020710240003F0340003F0340003F0340003F0340003F03400000000000D5
:200020000000000000000000000000003F0340003F034000000000003F0340003F034000B8
:200040003F0340003F0340003F0340003F034000310340003F0340003F0340003F0340009E
:200060003F0340003F034000000000006D0D4000810D40003F0340003F0340003F0340006E
:200080003F0340003F0340003F0340003F0340003F0340003F0340003F0340003F03400050
:2000A0003F0340003F0340003F0340003F0340003F034000E10840003F034000000000000B
:2000C000000000000000000000000000000000000000000000000000000000000000000020
:2000E000000000000000000000000000000000000000000000000000000000003F0340007E
:20010000E10E40003F0340000000000000000000000000000000000000000000000000002E
:200120000000000000000000000000000000000000000000000000000000000000000000BF
:200140000000000000000000044B05481B1A062B02D9044B03B11847704700BF474540001E
:20016000444540000000000005490648091A891001EBD171491002D0034B03B118477047ED
:2001800044454000444540000000000010B5064C237843B9FFF7D8FF044B13B10448AFF351
:2001A00000800123237010BDF0010020000000004445400008B5084B1BB108490848AFF342
:2001C00000800848036813B9BDE80840CCE7064B002BF9D09847F7E700000000F401002061
:2001E00044454000444540000000000080B483B000AFEFF310837B607B68002B0CBF01230A
:200200000023DBB23B6072B6BFF35F8F044B00221A703B6818460C37BD465DF8047B7047FE
:20022000F800002080B483B000AF78607B68002B14BF01230023DBB218460C37BD465DF80A
:20024000047B704780B582B000AF78607868FFF7E9FF0346002B05D0044B01221A70BFF3C5
:200260005F8F62B600BF0837BD4680BDF800002080B584B000AF254BFB60254BBB60FA6852
:20028000BB689A420CD007E0BB681A1DBA60FA68111DF96012681A60BB681E4A9342F3D325
:2002A0001D4BBB6004E0BB681A1DBA6000221A60BB681A4A9342F6D3194BFB60194AFB681D
:2002C00023F07F039360FFF791FF7860164A164B1B6843F470031360BFF34F8FBFF36F8F97
:2002E0007868FFF7AFFFFB68B3F1005F09D3FB680E4A934205D80B4A0A4B9B6843F0005398
:20030000936004F0B3F804F07DF8FEE74445400000000020F0010020F00100209C0800202E
:200320000000400000ED00E088ED00E0FF7F022080B400AF00BFBD465DF8047B704780B457
:2003400000AFFEE780B400AF414B1B6B03F00303012B14D0012B02D3022B38D059E03D4B14
:200360005B6903F08003002B04D03B4B4FF400421A604EE0384B4FF4FA421A6049E0344B6D
:200380001B6A03F08073002B03D0334B334A1A603FE0314B324A1A602D4B1B6A03F070038B
:2003A000102B04D0202B08D0002B0ED00EE02A4B1B685B00284A136008E0274B1A681346A7
:2003C0005B001344244A136000E000BF21E0214B5B6903F08003002B04D01F4B4FF4004256
:2003E0001A6003E01C4B4FF4FA421A60184B1B6B03F00303022B0BD1154B9B6A1B0CC3F313
:200400000C030133144A126802FB03F3124A136000BF0F4B1B6B03F07003702B08D10E4B2D
:200420001B68104AA2FB03235B080B4A13600AE0074B1B6B1B0903F00703074A126822FA27
:2004400003F3054A136000BFBD465DF8047B704700040E4010140E40F4000020001BB700ED
:2004600000127A00ABAAAAAA80B483B000AF78607B68194A934204D8184B4FF080621A6064
:2004800023E07B68164A934203D8144B154A1A601BE07B68144A934203D8104B134A1A6010
:2004A00013E07B68124A934203D80C4B114A1A600BE07B68104A934204D8084B4FF004229D
:2004C0001A6002E0054B0D4A1A6000BF0C37BD465DF8047B704700BFFF2C3101000A0E409B
:2004E000FF59620200010004FF86930300020004FFB3C40400030004FFE0F50500050004B7
:2005000080B582B000AF78607B68072B31D801A252F823F071054000350540003D0540001D
:20052000450540004D054000550540005D05400067054000002000F01FFA1AE0012000F083
:200540001BFA16E0002000F04DFA12E0102000F049FA0EE0202000F045FA0AE03E2100201E
:2005600000F078FA05E03E21012000F073FA00E000BF00BF0837BD4680BD00BF80B582B054
:2005800000AF78607B68072B26D801A252F823F0B1054000B5054000B5054000C7054000CB
:2005A000C7054000C7054000C7054000C7054000012312E000F0FCF90346002B14BF0123A5
:2005C0000023DBB209E000F081FA0346002B14BF01230023DBB200E0002318460837BD4659
:2005E00080BD00BF80B483B000AF78607B68072B25D801A252F823F0190640001F0640003B
:20060000250640002B0640002F06400033064000370640003B0640004FF4FA4310E04FF45F
:2006200000430DE04FF400430AE0084B08E0084B06E0084B04E0084B02E0074B00E00023E5
:2006400018460C37BD465DF8047B704700127A000024F40000366E01001BB70080B582B0E9
:2006600000AF0346FB7100BFFB791846FFF786FF034683F00103DBB2002BF5D100BF0837CE
:20068000BD4680BD80B586B000AFF8607A603B600B46FB72FB7A1846FFF7A4FF02467B68DE
:2006A000B2FBF3F37B617B693A6802FB03F37B613B68013B1A04064B13407A68D2B2134319
:2006C00043F47C52FB681A6000BF1837BD4680BD0000FF1F80B582B000AF786039603B68A2
:2006E000002B06D100F000FA074A7B681B68936205E000F013FA044A7B681B68D36200BFD8
:200700000837BD4680BD00BF00040E4080B582B000AF78607B68002B03D100F0F1F9034656
:2007200007E07B68012B03D100F004FA034600E0002318460837BD4680BD80B582B000AFC2
:200740000346FB71FB790033012B08D8FB791846FFF7D6FEFB791846FFF780FF00E000BFAF
:2007600000BF0837BD4680BD80B582B000AF786000BF7868FFF7CAFF0346002BF9D000238F
:2007800018460837BD4680BD80B500AF0020FFF729FF024640F64E6303FB02F3184680BD9D
:2007A00080B500AFFFF7F0FF0346184680BD000080B5A6B002AF2148FFF756FE0020FFF787
:2007C000BCFF07F1080040F64E6301220021FFF759FF07F1080300211846FFF77BFF0020D3
:2007E000FFF7C2FF002000F085F8FFF7ABFDFFF7D7FF03461846FFF737FE114B1B68114A3F
:20080000934217D80E4B1B680F4A934212D907F10C022023009313460F220E210B4803F044
:2008200087FEFB6C9BB2C7F88C30D7F88C10084800F029FA00BF9037BD4680BD000E270734
:20084000F4000020C0EF0B083F2C4206000A0E4010140E4080B483B000AF78607B681B6BEE
:2008600018460C37BD465DF8047B704780B582B000AF7860074A7B6852F82330002B04D08B
:20088000044A7B6852F82330984700BF0837BD4680BD00BF0C02002080B584B000AF786090
:2008A0007868FFF7D7FF0346BB600023FB600DE00A4AFB6852F82320BB681340002B02D006
:2008C000F868FFF7D3FFFB680133FB60FB68172BEED900BF1037BD4680BD00BFB444400055
:2008E00080B500AF0248FFF7D7FF00BF80BD00BF0080034080B485B000AF78601D491D4BC2
:200900001B6B23F070027B6813430B634FF40063FB6007E0FB68002B01D1012323E0FB6853
:20092000013BFB60134B9B6E03F00803002BF1D0104A104B1B6B23F0030343F002031363CD
:200940004FF40063FB6007E0FB68002B01D1012309E0FB68013BFB60064B9B6E03F00803F0
:20096000002BF1D0002318461437BD465DF8047B704700BF00040E4080B483B000AF786032
:200980007B68012B07D1084A074B9B6843F0254343F480139360044B044A1A6000BF0C3758
:2009A000BD465DF8047B704710140E40080000A580B400AF094B5B6903F08003002B07D017
:2009C000074B9B6E03F08003002B01D0012300E000231846BD465DF8047B704710140E40C5
:2009E00000040E4080B483B000AF7860184A184B1B6A43F45C1343F00803136200BF144BF6
:200A00009B6E03F40033002BF9D01149104B1B6A23F45C1323F070037A68134343F45C138B
:200A20000B6200BF0A4B9B6E03F40033002BF9D0074A074B1B6A23F09B7323F4803343F4C4
:200A40005C13136200BF0C37BD465DF8047B704700040E4080B483B000AF786039607B6866
:200A6000002B08D01649164B1B6A164A1A40164B13430B621EE01249114B1B6A23F45C1390
:200A800023F003033A68120292B2134343F45C1343F001030B6200BF094B9B6E03F0010390
:200AA000002BF9D0064A064B1B6A43F09B7343F48033136200BF0C37BD465DF8047B7047EC
:200AC00000040E40FCFFC8FE0200370180B400AF044B9B6E03F480331846BD465DF8047BAF
:200AE000704700BF00040E4080B400AF034B00229A6200BFBD465DF8047B704700040E4040
:200B000080B400AF044B9B6E03F002031846BD465DF8047B704700BF00040E4080B400AFC2
:200B2000034B0022DA6200BFBD465DF8047B704700040E4080B400AF044B9B6E03F0040335
:200B40001846BD465DF8047B704700BF00040E4080B483B000AF78607B68322B01D901236C
:200B60002FE07B681F2B13D8194B9A6901217B6801FA03F31A4001217B6801FA03F39A42C5
:200B80001ED0134A01217B6801FA03F3136117E07B68203B7B600E4BD3F8082101217B683E
:200BA00001FA03F31A4001217B6801FA03F39A4206D0074A01217B6801FA03F3C2F8003110
:200BC000002318460C37BD465DF8047B704700BF00040E4080B483B000AF78607B68322B84
:200BE00001D901232FE07B681F2B13D8194B9A6901217B6801FA03F31A4001217B6801FA19
:200C000003F39A421ED1134A01217B6801FA03F3536117E07B68203B7B600E4BD3F80821AF
:200C200001217B6801FA03F31A4001217B6801FA03F39A4206D1074A01217B6801FA03F374
:200C4000C2F80431002318460C37BD465DF8047B704700BF00040E4080B584B000AFF860D2
:200C6000B9607A607B681B0203F47062BB68134343F080631946F86803F05EFC002318469C
:200C80001037BD4680BD80B485B000AF786039607B68DB6923F4F053FB603B685B0203F471
:200CA000F052FB68134343F0B44343F480737A68D36100BF1437BD465DF8047B7047000037
:200CC00080B584B000AF78603960786801F0C4FFF860786801F0CCFF0246FB681340FB60AA
:200CE000FB68002B3CD00023BB6034E01E4ABB681B0113441A683B689A4226D11A4ABB688B
:200D00001B01134404331A68FB681340002B1CD0154ABB681B0113440C331B681249BA68A6
:200D200012010A4410681049BA6812010A4404321268114698470C4ABB681B0113440433F5
:200D40001B68DB43FA681340FB60BB680133BB60BB68062B03D8FB68002BC7D100E000BF7C
:200D600000BF1037BD4680BD6C02002080B500AF0B210248FFF7A4FF00BF80BD000E0E4054
:200D800080B500AF0C210248FFF79AFF00BF80BD00100E4080B483B000AFEFF310837B60A9
:200DA0007B68002B0CBF01230023DBB23B6072B6BFF35F8F044B00221A703B6818460C37E4
:200DC000BD465DF8047B7047F800002080B483B000AF78607B68002B14BF01230023DBB2CA
:200DE00018460C37BD465DF8047B704780B582B000AF78607868FFF7E9FF0346002B05D0CF
:200E0000044B01221A70BFF35F8F62B600BF0837BD4680BDF800002080B584B000AF034667
:200E2000FB71FB790A4AD35CFF2B00D1FEE7FFF7B1FFF860FB79064AD25C0132D1B2044A7B
:200E4000D154F868FFF7D2FF00BF1037BD4680BD9408002080B584B000AF0346FB71FB7903
:200E60000A4AD35C002B00D1FEE7FFF793FFF860FB79064AD25C013AD1B2044AD154F868AB
:200E8000FFF7B4FF00BF1037BD4680BD9408002080B582B000AF0346FB71FB7983F00103F1
:200EA000DBB2002B06D00D4B1B78002B02D00020FFF7D0FFFB79002B09D0084B1B7883F006
:200EC0000103DBB2002B02D00020FFF7A5FF034AFB79137000BF0837BD4680BDDC0200204A
:200EE00080B500AF01F0D0FE034683F00103DBB2002B0CD05F4BDB6903F48073002B06D121
:200F000072B6BFF35F8F5C4B00221A70B1E03020FFF71EFE574B9B6903F40063002B0CD0BC
:200F2000544BDB6903F40063002B06D0514B4FF400621A6202F002F899E001F0F3F803462C
:200F4000002B40F0918001F009FC0346002B40F08D80484B9B6903F40053002B05D0454B0D
:200F6000DB6903F40053002B17D1424B9B6903F40073002B05D03F4BDB6903F40073002B72
:200F80000BD13C4B9B6903F48063002B1DD0394BDB6903F48063002B17D0364B4FF4185216
:200FA0001A62344B4FF418525A610120FFF770FF304B4FF480721A622E4B4FF480721A61F3
:200FC0002C4B4FF400621A6151E02A4B9B6903F48073002B20D0274BDB6903F48073002B00
:200FE0001AD0244B4FF480721A62224B4FF480725A61204B4FF400521A611E4B4FF40072F1
:201000001A611C4B4FF480621A613020FFF7E2FD0020FFF73DFF2AE0164BDB6903F480535E
:20102000002B25D0134B4FF480521A6201F0C8F801F05CFF0F4A0F4B5B6823F00103536064
:201040000C4A0C4B5B6823F00203536000F0B4FC00F002FD074B4FF480721A61054B4FF431
:2010600000621A6100BF02E000BF00E000BF00BF00BF80BD00400440F800002080B400AF5A
:2010800000231846BD465DF8047B704780B483B000AF0346FB71154A144B5B6823F00103DE
:2010A0005360124A114B9B6823F480739360FB79002B15D00D490D4B9B6823F07F02FB7988
:2010C00003F07F0313438B60084A084B9B6843F480739360054A054B5B6843F00103536049
:2010E00000BF0C37BD465DF8047B70470040044080B400AF094B5B6803F00103002B06D0EA
:20110000064B9B68DBB203F07F03DBB200E000231846BD465DF8047B704700BF00400440BA
:2011200080B400AF054B1B689BB2C3F30A039BB21846BD465DF8047B704700BF004004406D
:2011400080B400AF00231846BD465DF8047B704780B483B000AF78600B467B80054A7B6831
:201160009360044A7B88938100BF0C37BD465DF8047B7047E002002080B487B000AF034622
:20118000FB710B46BB711346BB80FB7903F08003002B14BF01230023FB75BB7903F0030306
:2011A000012B0CBF01230023BB75FB7903F00F03FB71FB79032B01D90023CAE0684AFB796D
:2011C0000C3352F8233003F40043002B01D00023BFE0BB7D002B07D0FB79002B02D0FB791C
:2011E000032B01D10023B4E0BA88FB79042B02D0FB79052B02D14FF4007300E040239A4235
:2012000001DD0023A5E0FB795A1E13469B0013449B00544A13443B61BB88C3F3090399B295
:201220003A69138A61F3090313823A69537C6FF3C71353743A69537C6FF345135374FB7D99
:20124000002B04D03A69537C6FF3830353744449434B9A6AFB79012000FA03F313438B6287
:2012600000BF3F4B9A6AFB79012101FA03F31340002BF6D03A493A4B9A6AFB79012000FABB
:2012800003F3DB4313408B62354AFB790C3352F82330FB60FB6843F04F03FB60FB6823F413
:2012A000074323F08003FB60FB7D002B0DD0BB791B0203F4407343F4806303F4E06343F4ED
:2012C000004248F28073134008E0BB791B0203F4407343F4004248F280731340FA681343B8
:2012E000FB601F49FB79FA680C3341F8232000BF1B4AFB790C3352F82320FB7D002B0AD0B9
:20130000BB791B0203F4407343F4806303F4E06343F4004305E0BB791B0203F4407343F4ED
:2013200000431A40FB7D002B0AD0BB791B0203F4407343F4806303F4E06343F4004305E0E5
:20134000BB791B0203F4407343F400439A42CFD1012318461C37BD465DF8047B704700BF7A
:20136000004004400003002080B584B000AF0346FB71FB7903F00F03FB73FB7B032B22D874
:20138000134AFB7B0C3352F82330BB60BB6843F04F03BB60BB6823F40043BB600C49FB7B5D
:2013A000BA680C3341F8232000BF094AFB7B0C3352F8233003F40043002BF6D1FB791846EE
:2013C00000F01EFF00E000BF1037BD4680BD00BF0040044080B485B000AF0346FB71FB7956
:2013E00003F00F03FB73FB7B5A1E13469B0013449B00134A1344BB60FB7B032B01D9002336
:2014000017E0BB685B7C03F02003DBB2002B0AD10C4AFB7903F00F030C3352F8233003F094
:201420002803002B01D0012300E0002303F00103DBB218461437BD465DF8047B704700BFE4
:20144000000300200040044080B586B000AF0346FB71FB7903F08003002B14BF01230023E7
:20146000FB75FB7903F00F03BB75BB7D5A1E13469B0013449B002D4A13443B61BB7D032BED
:2014800001D900234DE0FFF785FCF860FB7D002B1FD0274ABB7D0C3352F8233003F0100336
:2014A000002B06D13B695B7CC3F38103DBB2012B0FDD3A69537C43F0200353741C4ABB7DA3
:2014C000012101FA03F31361F868FFF78FFC012327E0174ABB7D0C3352F82330BB60BB68C6
:2014E00043F04F03BB60BB6843F02003BB601049BB7DBA680C3341F8232000BF0C4ABB7DFD
:201500000C3352F8233003F02003202BF6D1084ABB7D012101FA03F31361F868FFF766FCFE
:20152000012318461837BD4680BD00BF000300200040044080B586B000AF0346FB71FB79F1
:2015400003F00F03FB71FB79032B01D900237FE0FB795A1E13469B0013449B003E4A13446B
:201560007B617A69537C6FF3451353743B4AFB790C3352F8233003F02003002B67D0374A8E
:20158000FB790C3352F823303B613B6943F04F033B613B6923F020033B613049FB793A6994
:2015A0000C3341F8232000BF2C4AFB790C3352F8233003F02003002BF6D12849274B9A6AFC
:2015C000FB79012000FA03F313438B6200BF234B9A6AFB79012101FA03F31340002BF6D047
:2015E0001E491E4B9A6AFB79012000FA03F3DB4313408B62194AFB790C3352F82330FB6026
:20160000FB6843F04F03FB60FB6823F00803FB601249FB79FA680C3341F8232000BF0F4AA7
:20162000FB790C3352F8233003F00803002BF6D17B695B7C03F01003DBB2002B07D07A6937
:20164000537C6FF3041353747B691B689847012318461837BD4680BD00030020004004407D
:2016600080B588B000AFBA607B600346FB730B46BB73FB7B03F08003002B14BF01230023F2
:20168000FB77FB7B03F00F03FB73FB7B032B01D9002383E0FB7B5A1E13469B0013449B0017
:2016A000404A1344BB61404AFB7B0C3352F8233003F40043002B0FD0BB695B7C03F02003FC
:2016C000DBB2002B08D1384AFB7B0C3352F8233003F02003002B01D000235FE0FFF75AFBE6
:2016E0007861BB695B7C03F01003DBB2002B04D07869FFF77BFB002350E0BA69537C43F0BF
:20170000100353747869FFF771FBBB69BA685A60BB697A689A60BB690022DA60BB69BA6AE4
:201720001A60BB7B002B02D17B68002B01D1012300E00023DBB203F00103D9B2BA69537CF3
:2017400061F386135374BA69537C6FF3C7135374FFF720FB7861144AFB7B012101FA03F30F
:201760001361FB7F002B15D00F4AFB7B0C3352F8233003F01103002B0CD1FB7B01211846BB
:2017800000F0E8FE0346002B04D0FB7B0021184600F0E0FE7869FFF729FB01231846203794
:2017A000BD4680BD000300200040044080B588B000AF0346FB71FB7903F08003002B14BF89
:2017C00001230023FB77FB7903F00F03FB71FB79032B00F2E980FFF7DDFAB861744AFB7956
:2017E000012101FA03F35361B869FFF7FFFAFB7F002B00F0AE806E4AFB790C3352F8233047
:2018000003F01003002B73D0FB79002B52D0FB79032B4FD0664AFB790C3352F823307B61F6
:201820007B6943F04F037B617B6923F010037B615F49FB797A690C3341F8232000BF5C4A5E
:20184000FB790C3352F8233003F01003002BF6D100BF574AFB790C3352F8233003F010038A
:20186000002BF6D1524AFB790C3352F823303B613B6943F04F033B613B6943F010033B61A3
:201880004B49FB793A690C3341F8232000BF484AFB790C3352F8233003F01003102BF6D139
:2018A00000BF434AFB790C3352F8233003F01003002BF6D03E4AFB790C3352F82330FB6062
:2018C000FB6843F04F03FB60FB6823F01003FB603749FB79FA680C3341F8232000BF344A93
:2018E000FB790C3352F8233003F01003002BF6D12F4AFB790C3352F82330BB60BB6843F066
:201900004F03BB60BB6823F00103BB602849FB79BA680C3341F8232000BF254AFB790C3362
:2019200052F8233003F00103002BF6D1FB795A1E204913469B0013449B000B4403F1100291
:2019400053786FF3830353700CE0FB79184600F0ADFC174AFB790C3352F8233003F04203D1
:20196000002BF2D11249124B9A6AFB79012000FA03F313438B6200BF0D4B9A6AFB79012144
:2019800001FA03F31340002BF6D00949084B9A6AFB79012000FA03F3DB4313408B62FB7912
:2019A000184600F02DFC00E000BF2037BD4680BD004004400003002080B584B000AF254A4C
:2019C000244B9B6843F480739360224A214B9B6823F07F0393601F4B1B6BBB60BB6843F0B4
:2019E0004F03BB60BB6823F4074323F08003BB60BB6843F40043BB60164ABB68136300BFD5
:201A0000144B1B6B03F40043B3F5004FF8D1114B1B6B7B607B6843F04F037B607B6843F4CD
:201A200000437B600B4A7B68136300BF094B1B6B03F40043B3F5004FF8D1FFF7ABF9F86055
:201A4000044B01221A61F868FFF7D0F900BF1037BD4680BD0040044080B400AF084B002258
:201A60001A61074B00225A61054B00229A81054B00221A7000BFBD465DF8047B704700BF27
:201A8000E0020020F802002080B586B000AF634B1B78002B03D000F037FBFFF7DDFF604B32
:201AA0001B6B1B0CC3F30A03082B17D05C4B1B6B3B613B6943F04F033B613B6923F0040350
:201AC0003B61574A3B69136300BF554B1B6B03F00403002BF9D100F0BFFA9BE00023FB7524
:201AE00009E0FB7D4F4A13444D4A126DD2B21A70FB7D0133FB75FB7D072BF2D9494B5A886A
:201B0000484B5A80474B9A88464B9A80454BDA88444BDA8001F000FE034683F00103DBB2E2
:201B2000002B17D03E4B1B6BFB60FB6843F04F03FB60FB6823F00403FB60394AFB681363B2
:201B400000BF374B1B6B03F00403002BF9D100F083FA5FE0334B1B785BB2002B35DA304B50
:201B60001B6BBB60BB6843F04F03BB60BB6843F08003BB602A4ABB68136300BF284B1B6B48
:201B800003F08003802BF9D1254B1B6B7B607B6843F04F037B607B6823F004037B60204A04
:201BA0007B68136300BF1E4B1B6B03F00403002BF9D11D4B00221A801C4B00221A80174B86
:201BC00002221A7000F034F824E0154B1B6B3B603B6843F04F033B603B6823F004033B609B
:201BE0000F4A3B68136300BF0D4B1B6B03F00403002BF9D10B4BDB88002B02D100F052FAF4
:201C000008E0094B00221A80084B00221A80034B01221A701837BD4680BD00BFF80200205A
:201C200000400440E0020020FA020020FC02002080B588B000AF714B1B78032B19D1704BA6
:201C40001B6B3B613B6943F04F033B613B6923F001033B616A4A3B69136300BF684B1B6B80
:201C600003F00103002BF9D100F04EFAFFF7F4FEC1E0644B9A89644B1B88D31AFB83FB8BA2
:201C8000002B3CD1614B1A885F4B1B8813449AB25E4B1A805B4BDA885C4B1B889A4203D08A
:201CA0005B4B1B78002B17D000F022FA544B1B6BFB60FB6843F04F03FB60FB6823F0010390
:201CC000FB604F4AFB68136300BF4D4B1B6B03F00103002BF9D18EE04A4B5B69002B0ED09E
:201CE000484B5B699847034683F00103DBB2002B05D1454B00221A80424B9B89FB83FB8B5F
:201D00003F2B05D94023FB83414B00221A7002E03F4B01221A703B4B9B683B4A128813444A
:201D2000BB61FFF737F87861354B1B6B03F00203002B1BD07869FFF759F8304B04221A7022
:201D40002F4B1B6BBB60BB6843F04F03BB60BB6823F00103BB602A4ABB68136300BF284B11
:201D60001B6B03F00103002BF9D144E000237B7708E02349BB695A1CBA611B780B657B7FB2
:201D800001337B777B7F9BB2FA8B9A42F1D81E4B1A88FB8B13449AB21B4B1A80184B1B6B8F
:201DA0007B607B6843F04F037B607B6843F010037B60134A7B68136300BF114B1B6B03F0B7
:201DC0001003102BF9D10E4B1B6B3B603B6843F04F033B603B6823F001033B60084A3B6864
:201DE000136300BF064B1B6B03F00103002BF9D17869FEF7FBFF2037BD4680BDF80200206A
:201E000000400440E0020020FC020020FA0200203C03002080B588B000AF8A4B1B78012BF3
:201E200024D0884B1B78022B03D0864B1B78042B02D100F069F901E000F00EF9824B1B6B65
:201E40007B617B6943F04F037B617B6923F002037B617D4A7B69136300BF7B4B1B6B03F06A
:201E60000203002BF9D1FFF7F7FDE7E0764B1B6B1B0C9BB2C3F30A03BB83744B9B891A46B8
:201E8000734B1B881946BB8B0B449A4205DA6F4B9A896F4B1B88D31ABB836C4B9B686C4A5D
:201EA00012881344BB610023FB7709E0BB695A1CBA61654A126DD2B21A70FB7F0133FB7786
:201EC000FB7F9BB2BA8B9A42F0D8614B1A88BB8B13449AB25E4B1A80BB8B402B0AD15B4BA6
:201EE000DB881A465B4B1B881946594B1B880B449A4240DC564B1A88544B9A81534B5B698A
:201F0000002B20D0514B5B699847034683F00103DBB2002B17D000F09FF84B4B1B6B3B61C9
:201F20003B6943F04F033B613B6923F002033B61454A3B69136300BF434B1B6B03F0020310
:201F4000002BF9D17AE0404B1B6BFB60FB6843F04F03FB60FB6823F00203FB603A4AFB68C6
:201F6000136300BF384B1B6B03F00203002BF9D100F098F862E0354B9A89354B1B889A42D2
:201F800047D1324B5B69002B17D100F065F82E4B1B6BBB60BB6843F04F03BB60BB6823F075
:201FA0000203BB60284ABB68136300BF264B1B6B03F00203002BF9D140E0244B5B69984721
:201FC000034683F00103DBB2002B17D000F044F81D4B1B6B7B607B6843F04F037B607B6887
:201FE00023F002037B60184A7B68136300BF164B1B6B03F00203002BF9D11FE0154B1A889F
:20200000134B1B8813449AB2124B1A80104B00221A800D4B1B6B3B603B6843F04F033B60D2
:202020003B6823F002033B60074A3B68136300BF054B1B6B03F00203002BF9D12037BD4604
:2020400080BD00BFF802002000400440E0020020FC020020FA02002080B483B000AF0F4B3A
:2020600005221A700E4B1B6B7B607B6843F04F037B607B6843F020037B60094A7B681363F2
:2020800000BF074B1B6B03F02003202BF9D100BF0C37BD465DF8047B704700BFF802002015
:2020A0000040044080B483B000AF0F4B03221A700E4B1B6B7B607B6843F04F037B607B689D
:2020C00043F010037B60094A7B68136300BF074B1B6B03F01003102BF9D100BF0C37BD468C
:2020E0005DF8047B704700BFF80200200040044080B400AF034B04221A7000BFBD465DF800
:20210000047B7047F802002080B500AF044B1B69002B02D0024B1B69984700BF80BD00BF50
:20212000E002002080B582B000AF244BDB6903F00103002B01D100233BE0204B1B6B03F0BE
:202140000403002B03D0FFF79FFC012331E01B4B1B6B03F00103002B03D0FFF769FD012353
:2021600027E0164B1B6B03F00203002B03D0FFF751FE01231DE0114B1B6B03F00803002B0A
:2021800016D00E4B1B6B7B607B6843F04F037B607B6823F008037B60084A7B68136300BF16
:2021A000064B1B6B03F00803002BF9D1012300E0002318460837BD4680BD00BF004004400E
:2021C00080B582B000AF0023FB7110E0FA7913469B0013449B00094A9818FB790133DBB2D9
:2021E0001A46012100F028F8FB790133FB71FB79022BEBD900BF0837BD4680BD0003002073
:2022000080B582B000AF0346FB71FB7903F00F03FB71FB795A1E13469B0013449B00054AED
:202220001344FA790121184600F006F800BF0837BD4680BD0003002080B584B000AFF86095
:20224000B9601346FB71FB685B7C03F01003DBB2002B23D0FA68537C6FF304135374FB68E1
:202260001B68002B1CD0104AFB790C3352F8233003F48063002B03D0FB7963F07F03FB718D
:20228000FB681B68BA68012A0CBF01220022D2B21046FA689168FA79984702E000BF00E0F3
:2022A00000BF1037BD4680BD0040044080B487B000AF0346FB71FB795A1E13469B0013444E
:2022C0009B00454A13447B61444AFB790C3352F8233003F00203002B14BF01230023FB7417
:2022E0003E4AFB790C3352F8233003F04003002B14BF01230023BB74FB7C002B02D0BB7CB1
:20230000002B0ED1FB7C002B05D07A69537C6FF38303537405E07A69537C012161F3830348
:2023200053747B695B7C03F00C03DBB2002B2AD12A4AFB790C3352F82330FB60FB6843F0B1
:202340004F03FB60FB6823F00203FB602349FB79FA680C3341F8232000BF204AFB790C3321
:2023600052F8233003F00203002BF6D1FB79002B2CD0FB79032B29D07A69537C012161F378
:202380008303537422E0154AFB790C3352F82330BB60BB6843F04F03BB60BB6823F04003E8
:2023A000BB600E49FB79BA680C3341F8232000BF0A4AFB790C3352F8233003F04003002B96
:2023C000F6D17A69537C6FF38303537400BF1C37BD465DF8047B704700030020004004408E
:2023E00080B489B000AF0346FB71FB795A1E13469B0013449B00554A13443B613B695A6842
:202400003B69DB681344FB613B699A683B69DB68D31AFB603B691B8AC3F309039BB2BB61D9
:202420000023FB75FA68BB699A4203D2FB68BB610123FB753B69DA68BB691A443B69DA6079
:202440005AE04348FA79FB69591CF9611B78194602F1140340F823103D48FA79FB69591CD9
:20246000F9611B78194602F1140340F823103848FA79FB69591CF9611B78194602F1140379
:2024800040F823103248FA79FB69591CF9611B78194602F1140340F823102D48FA79FB69FE
:2024A000591CF9611B78194602F1140340F823102748FA79FB69591CF9611B78194602F1EC
:2024C000140340F823102248FA79FB69591CF9611B78194602F1140340F823101C48FA792C
:2024E000FB69591CF9611B78194602F1140340F82310BB69083BBB61BB69072BA1D80DE003
:202500001348FA79FB69591CF9611B78194602F1140340F82310BB69013BBB61BB69002B88
:20252000EED13B695B7CC3F38103DBB2013303F00303D9B23A69537C61F383035374FB7D57
:2025400018462437BD465DF8047B7047000300200040044080B586B000AF03460A46FB716E
:202560001346BB71FB795A1E13469B0013449B00364A13447B617B695B7CC3F38103DBB2CF
:202580001A46FB79002B02D0FB79032B01D1012300E002239A4201DB012352E07B69DA6899
:2025A0007B699B689A4208D37B695B7C03F04003DBB2002B01D1002343E0FB791846FFF7F4
:2025C0000FFF0346FB74BB79002B1DD0204AFB790C3352F82330FB60FB6843F04F03FB6091
:2025E000FB6843F01003FB601949FB79FA680C3341F8232000BF164AFB790C3352F8233075
:2026000003F01003102BF6D1FB7C002B04D07A69537C6FF3861353747B69DA687B699B68BB
:202620009A420DD37B695B7C03F04003DBB2002B06D17A69537C43F080035374002300E02C
:20264000012318461837BD4680BD00BF000300200040044080B58AB000AF0346FB71FB79BC
:202660005A1E13469B0013449B003A4A13447B6100237B627B699A687B69DB68D31A3B61AF
:202680007B691B8AC3F309039BB2FB607B695A687B69DB681344FB610023FB762E4AFB7947
:2026A0000C3352F823301B0CC3F30A037B627A6AFB689A4234BF01230023FB727B6A002B9D
:2026C00021D07A6A3B699A4203D33B697B620123FB767B69DA687B6A1A447B69DA6000230F
:2026E0003B620CE0FB695A1CFA611B49FA79143251F82220D2B21A703B6A01333B623A6A4C
:202700007B6A9A42EED3FB791846FFF7CFFDFB7E002B02D1FB7A002B18D00F4AFB790C3398
:2027200052F8233003F02003002B0FD10A4AFB79012101FA03F353617B69DA687B699A6048
:20274000FB791A4600217869FFF776FD00BF2837BD4680BD000300200040044080B58EB0C2
:2027600000AF012387F8373058E29E4B9A6997F83730012101FA03F31340002B00F0488239
:2027800097F837305A1E13469B0013449B00964A13443B63934A97F837300C3352F8233061
:2027A00003F04203002B06D097F837301846FFF751FF012338E28B4A97F837300C3352F8B4
:2027C000233003F00103002B00F0E4813B6B5B7CC3F38103DBB2033303F00303D9B23A6B8C
:2027E000537C61F3830353743B6B5B7C03F02003DBB2002B00F093803B6B5B7C03F00C039C
:20280000DBB2002B42D0774A97F837300C3352F82330BB62BB6A43F04F03BB62BB6A43F01F
:202820001003BB626F4997F83730BA6A0C3341F8232000BF6B4A97F837300C3352F8233095
:2028400003F01003102BF5D1664A97F837300C3352F823307B627B6A43F04F037B627B6AE6
:2028600023F001037B625F4997F837307A6A0C3341F8232000BF5B4A97F837300C3352F844
:20288000233003F00103002BF5D146E0554A97F837300C3352F823303B623B6A43F04F039F
:2028A0003B623B6A23F001033B624E4997F837303A6A0C3341F8232000BF4A4A97F83730ED
:2028C0000C3352F8233003F00103002BF5D1454A97F837300C3352F82330FB61FB6943F0E0
:2028E0004F03FB61FB6943F02003FB613D4997F83730FA690C3341F8232000BF394A97F8A9
:2029000037300C3352F8233003F02003202BF5D13A6B537C6FF345135374012384E13B6B29
:202920005B7C23F07F03DBB2002B16D03A6B537C6FF3C71353743B6BDA683B6B9A60294A1B
:2029400097F83730012101FA03F3536197F837301A460021386BFFF76FFC3B6BDA683B6BB1
:202960009B689A4242D33B6B5B7C03F04003DBB2002B3BD13B6B5B7C03F00C03DBB2002BB5
:2029800034D1FEF707FAF862164A97F83730012101FA03F35361F86AFEF728FA114A97F862
:2029A00037300C3352F82330BB61BB6943F04F03BB61BB6923F00103BB610A4997F8373053
:2029C000BA690C3341F8232000BF064A97F837300C3352F8233003F00103002BF5D101232C
:2029E00022E100BF004004400003002097F83730002B53D097F83730032B4FD03B6B5B7C6A
:202A0000C3F38103DBB2002B48DD894A97F837300C3352F823307B617B6943F04F037B61D9
:202A20007B6943F010037B61814997F837307A690C3341F8232000BF7D4A97F837300C3377
:202A400052F8233003F01003102BF5D1784A97F837300C3352F823303B613B6943F04F0379
:202A60003B613B6923F001033B61714997F837303A690C3341F8232000BF6D4A97F83730E9
:202A80000C3352F8233003F00103002BF5D197F8373000211846FFF75DFD79E097F837305E
:202AA000002B4ED097F83730032B4AD097F8373001211846FFF74EFD034683F00103DBB28B
:202AC000002B16D03A6B537C6FF3C71353743B6BDA683B6B9A60564A97F83730012101FA33
:202AE00003F3536197F837301A460021386BFFF7A3FB4F4A97F837300C3352F82330FB60B8
:202B0000FB6843F04F03FB60FB6823F00103FB60474997F83730FA680C3341F8232000BF3B
:202B2000434A97F837300C3352F8233003F00103002BF5D197F8373000211846FFF70AFDDC
:202B400026E097F8373001211846FFF703FD384A97F837300C3352F82330BB60BB6843F03E
:202B60004F03BB60BB6823F00103BB60304997F83730BA680C3341F8232000BF2C4A97F883
:202B800037300C3352F8233003F00103002BF5D1012349E0264A97F837300C3352F823307B
:202BA00003F00803002B34D0214A97F837300C3352F823307B607B6843F04F037B607B68AA
:202BC00023F008037B601A4997F837307A680C3341F8232000BF164A97F837300C3352F868
:202BE000233003F00803002BF5D1114A97F837300C3352F8233003F4E063B3F5807F05D0B0
:202C00000B4A97F837300C3352F8233001230BE000BF97F83730013387F8373097F83730B9
:202C2000032B7FF6A2AD002318463837BD4680BD0040044080B582B000AF786039603A68C5
:202C400079680448FEF708F8002318460837BD4680BD00BF000A0E4080B483B000AF78604D
:202C60007B68DB6C18460C37BD465DF8047B704780B483B000AF78607B689B6C18460C3782
:202C8000BD465DF8047B704780B400AF094B1B78DBB2002B14BF01230023DBB283F0010306
:202CA000DBB203F00103DBB21846BD465DF8047B704700BF3D03002080B400AF064B1B6841
:202CC0001B68054A12681268528892B213441846BD465DF8047B70474803002080B584B0F9
:202CE00000AF78600B46FB70FFF7E6FFF8607B681B781A467B6813447B6010E07B685B78CD
:202D0000042B11D07B685B78FA789A4201D17B680CE07B681B781A467B6813447B60FA68B1
:202D20007B689A42EAD800E000BF002318461037BD4680BD80B584B000AF03460A46FB714E
:202D40001346BB711E4B1B78002B01D1002332E01C4B1B681B681B79FA799A4201D3002379
:202D600029E0184B1B681B68174A1360FFF7A4FFF8601AE0144B1B685B78042B0DD1124B03
:202D80001B689B78FA799A4207D10F4B1B68DB78BA799A4201D101230DE00B4B1B680A4A27
:202DA000126812781344084A1360074B1B68FA689A42DFD8002318461037BD4680BD00BF62
:202DC00044030020480300204C03002080B584B000AF0346FB71FB7900211846FFF7AAFF53
:202DE000034683F00103DBB2002B01D000232FE0194B1B685A68FB799B0013441B68BB60AB
:202E0000BB68DB68984703461A46FB7911461846FFF790FF034683F00103DBB2002B01D0CD
:202E2000002315E00D4B1B68FB600521F868FFF755FFF860FB68002B05D0FB689B781846E5
:202E4000FEF792FAF1E700BFBB685B689847012318461037BD4680BD480300204C030020B2
:202E600080B584B000AF03460A46FB711346BB71BA79FB7911461846FFF75CFF034683F047
:202E80000103DBB2002B01D0002327E0154B1B68FB600521F868FFF721FFF860FB68002BBB
:202EA00011D0FB689878FB68D978FB689B889BB21A46FEF761F9034683F00103DBB2002B10
:202EC000E7D000230AE000BF074B1B685A68FB799B0013441B681B6898470346184610379F
:202EE000BD4680BD4C0300204803002080B582B000AF0F4B1B78002B10D00023FB7106E035
:202F0000FB791846FFF762FFFB790133FB71094B1B681B681B79FA799A42F1D3044B002202
:202F20001A70054B00221A8000BF0837BD4680BD44030020480300203E03002080B582B023
:202F400000AF144B1B78002B1FD00023FB7115E0114B1B685A68FB799B0013441B681B6924
:202F6000002B08D00C4B1B685A68FB799B0013441B681B699847FB790133FB71064B1B687E
:202F80001B681B79FA799A42E2D300BF0837BD4680BD00BF440300204803002080B500AF63
:202FA000064BDB88022B01D0002304E002210448FEF7CEF80123184680BD00BFE0020020AE
:202FC0003E03002080B500AF0B4BDB88022B01D000230EE0084B9B88DBB21846FEF7FAF99B
:202FE00003469AB2054B1A8002210448FEF7B0F80123184680BD00BFE00200205003002053
:2030000080B400AF0C4BDB88002B01D000230DE0094B5B88012B08D1084B1B8823F00203BD
:203020009AB2064B1A80012300E000231846BD465DF8047B704700BFE00200203E03002024
:2030400080B500AF0A4BDB88002B01D000230CE0074B5B88002B07D1054B9B88DBB2184633
:20306000FEF768FA034600E00023184680BD00BFE002002080B400AF094BDB88002B01D0BB
:20308000002307E0064B5B88012B02D000BF002300E000231846BD465DF8047B704700BF64
:2030A000E002002080B500AF0D4BDB88002B01D0002312E00A4B5B88002B0DD1084B9B88A7
:2030C000DBB21846FEF772FB054B9B88DBB21846FEF7BAF9034600E00023184680BD00BFF7
:2030E000E002002080B500AF054B5B88DBB203F07F03DBB21846FDF7C9FF00BF80BD00BF53
:20310000E002002080B400AF074BDB88002B01D0002303E0044B054A1A6101231846BD4675
:203120005DF8047B704700BFE0020020E530400080B584B000AF0023FB71224B5B88DBB26A
:20314000012B08D0022B0BD0002B0ED104211E48FDF7FEFF0BE01423FB711C4BBB6006E0E7
:203160000F23FB711A4BBB6001E0002326E0FB79002B22D00023FB730DE0FB7BFA7BB9680C
:203180000A44127891B2134A5B0013440A465A80FB7B0133FB73FA7BFB799A42EDD3FB79CA
:2031A0000133DBB25B00DAB20A4B1A70094B1B789BB219460748FDF7CBFF0123184610371F
:2031C000BD4680BDE0020020FC00002000010020180100202801002080B582B000AF414B4C
:2031E0005B88FB713F4B5B881B0A9BB2DBB2013B0E2B65D801A252F823F000BF39324000F8
:203200004F324000AD324000C1324000C1324000C1324000C1324000C1324000C13240009C
:20322000C1324000C1324000C1324000C1324000C13240008B3240002B4B1A682A4B1B68A2
:203240001B789BB219461046FDF782FF3BE0264B1B685B7CFA799A4201D300233EE0224BAD
:203260005A68FB79DB00134418681F4B5A68FB79DB0013441B685B889BB21946FDF768FF27
:20328000184B9B6802225A701DE0174B9B68002B01D1002322E0144B9A68134B9B685B88B1
:2032A0009BB219461046FDF753FF0CE0FFF740FF034683F00103DBB2002B03D000230DE04A
:2032C00000230BE000BF074BDA88064B9B899A4203D2044BDA88034B9A810123184608376C
:2032E000BD4680BDE0020020E401002080B500AF064BDB88012B01D0002304E0012104487D
:20330000FDF726FF0123184680BD00BFE00200204403002080B582B000AF274BDB88002B97
:2033200001D0002343E0FDF7E3FE0346002B01D100233CE0204B5B88DBB2204A1268527C8F
:20334000934201DD002332E0FFF7D0FD1A4B5B88DAB21B4B1A701A4B1B78002B01D10123E5
:2033600025E0164B5A68164B1B7803F10053013BDB001344134A13600023FB710FE0FB79BA
:2033800000211846FFF76CFD034683F00103DBB2002B01D000230AE0FB790133FB71094B91
:2033A0001B681B681B79FA799A42E8D3012318460837BD4680BD00BFE0020020E4010020A2
:2033C000440300204803002080B582B000AF1E4BDB88012B01D0002332E01C4B1B78002BE2
:2033E00001D100232CE0184B9B88FB71184B1B681B681B79FA799A4201D3002320E0FB7923
:2034000000211846FFF796FC034683F00103DBB2002B01D0002313E00D4B1B685A68FB7935
:203420009B0013441B683B603B68DB68984703461A46084B1A7001210648FDF789FE012322
:2034400018460837BD4680BDE002002044030020480300204003002080B582B000AF144BE3
:20346000DB88002B01D000231EE0124B1B78002B01D1002318E00E4B9B88FB710C4B5B88A2
:20348000BB71FB791846FFF7A1FC034683F00103DBB2002B01D0002306E0BA79FB7911464B
:2034A0001846FFF7DDFC034618460837BD4680BDE00200204403002080B500AF4D4B1B7841
:2034C0005BB2002B3EDA4B4BDB88002B01D100238EE0484B1B7803F01F03002B14D1454B3A
:2034E0005B78062B08D0082B0AD0002B00D00BE0FFF754FD03467BE0FFF76EFE034677E010
:20350000FFF7F4FE034673E03A4B1B7803F01F03012B08D1374B5B780A2B00D003E0FFF7C2
:2035200053FF034664E0334B1B7803F01F03022B5DD1304B5B78002B00D058E0FFF742FD75
:20354000034655E02B4B1B7803F01F03002B2AD1284B5B78013B082B24D801A252F823F0F8
:203560008D354000A535400095354000A535400085354000A5354000A5354000A5354000C3
:203580009D354000FFF7BEFD034631E0FFF738FD03462DE0FFF76EFD034629E0FFF7BAFE2C
:2035A000034625E000BF134B1B7803F01F03012B08D1104B5B780B2B00D003E0FFF74CFF9B
:2035C000034615E00B4B1B7803F01F03022B0ED1084B5B78012B02D0032B04D007E0FFF7A0
:2035E0002FFD034604E0FFF75DFD034600E00023184680BDE002002080B582B000AF204BB8
:203600001B78002B01D1002336E01E4B9B88FB711D4B1B681B681B79FA799A4201D30023A1
:203620002AE0FB7900211846FFF784FB034683F00103DBB2002B01D000231DE0124B1B68CF
:203640005A68FB799B0013441B683B603B68DB68984703461A46FB7911461846FFF76AFB32
:20366000034683F00103DBB2002B01D0002303E03B689B689847034618460837BD4680BD50
:2036800044030020E00200204803002080B582B000AF1E4B1B78002B01D1002332E01C4BAB
:2036A0009B88FB710023FB7124E01A4B1B685A68FB799B0013441B683B603B68DB689847F5
:2036C00003461A46FB7911461846FFF733FB034683F00103DBB2002B01D0002312E03B68F3
:2036E0009B6898470346002B01D001230AE0FB790133FB71074B1B681B681B79FA799A4246
:20370000D3D3002318460837BD4680BD44030020E00200204803002080B500AF1E4B0022C0
:203720009A811D4B00221A611B4B00225A611A4B1B785BB2002B05DA174BDB88002B01D155
:20374000002327E0144B1B7803F06003002B06D1FFF7B2FE0346002B01D001231AE00E4B93
:203760001B7803F01F03012B06D1FFF745FF0346002B01D001230DE0074B1B7803F01F0314
:20378000022B06D1FFF782FF0346002B01D0012300E00023184680BDE002002080B483B03E
:2037A00000AFEFF310837B607B68002B0CBF01230023DBB23B6072B6BFF35F8F044B002289
:2037C0001A703B6818460C37BD465DF8047B7047F800002080B483B000AF78607B68002B79
:2037E00014BF01230023DBB218460C37BD465DF8047B704780B582B000AF78607868FFF72F
:20380000E9FF0346002B05D0044B01221A70BFF35F8F62B600BF0837BD4680BDF80000206D
:2038200080B582B000AF0023BB71494B00221A70BB79484A002122F81310BA7946491346A4
:203840009B0013445B000B44A1221A70BA79424913469B0013445B000B44013320221A70CC
:20386000BA793D4913469B0013445B000B44023300221A80BB79002B02D10023FB7102E006
:203880000023FB7100BFBA79FB7998B2324913469B0013445B000B44043302461A80BA792D
:2038A0002D4913469B0013445B000B44063302221A80BA79284913469B0013445B000B440D
:2038C000083300221A80BA7924491346DB009B1A0B4400221A70002242F010025A7000221B
:2038E00042F00E029A700022DA70BA791B491346DB009B1A0B44043300221A70BA791749CB
:203900001346DB009B1A0B44053300221A70BA7912491346DB009B1A0B44063308221A70D8
:20392000BB79184600F049FC034683F00103DBB2002B01D0002307E0054B1B78DBB20133C9
:20394000DAB2034B1A70012318460837BD4680BD6A0300205C0300206003002054030020FC
:2039600080B582B000AF0023FB712D4B00221A70FB792C4A0021D154FB792B4A0021D1541F
:20398000FB792A4A0021D154FB79294A002122F82310FB79264A9B00134400225A80FB795E
:2039A000244A002122F81310FB79184600F02AFAFB79214A0021D154FB79204A0021D1540C
:2039C000FB791F4A002122F82310FB791C4A9B00134400225A80FB791A4A002122F813109E
:2039E000FB79184600F0FCF8034683F00103DBB2002B01D000230FE0094B1B78DBB201330E
:203A0000DAB2074B1A70064B1B78DBB2012B02D10D4B01221A70012318460837BD4680BDC8
:203A20006B0300208C08002090080020840800208008002088080020FC050020F40500204E
:203A4000F0050020F80500206C03002080B400AF054B1B78DBB2013BDAB2034B1A7000BFF3
:203A6000BD465DF8047B70476A03002080B582B000AF0A4B1B78DBB2013BDAB2074B1A70FC
:203A8000064B1B78FB71FB79184600F0A2FB044B00221A7000BF0837BD4680BD6B030020B0
:203AA0006C03002080B582B000AF00F075F80346FB71284B1B785BB2002B1CDA254B1B7818
:203AC00003F06003202B16D1224B5B78212B12D1204BDB88072B01D0002337E0FA79134618
:203AE000DB009B1A1C4A13441A4A9360194B07229A8101232AE0174B1B785BB2002B24DB20
:203B0000144B1B7803F06003202B1ED1114B5B78202B02D0222B16D017E00E4BDB88072BBF
:203B200001D0002312E00B4B0C4A1A61FA791346DB009B1A084A1344064A9360054B0722B7
:203B40009A81012302E0012300E0002318460837BD4680BDE002002054030020C93B400083
:203B600080B400AF00231846BD465DF8047B704780B400AF00231846BD465DF8047B704761
:203B800080B500AF034B1B78184600F03BF900BF80BD00BF9108002080B483B000AF094B00
:203BA0009B88DBB2002B02D10023FB7102E00023FB7100BFFB7918460C37BD465DF8047BAC
:203BC000704700BFE002002080B582B000AFFFF7E3FF0346FB7100BF0837BD4680BD00008C
:203BE00080B588B002AF0346FB710023FB71FFF7D5FD3861FB79314AD35CFB73FB79304A88
:203C0000D35CDBB2002B0ED1FB792E4A32F813309AB2F979FB7B2C4849000B4430F81330DA
:203C20009BB29A4204D23869FFF7E4FD002340E0FB79244A002122F81310FB79FA7B002A77
:203C40000CBF01220022D2B211461C4AD154FB791B4A0121D1543869FFF7CCFDFB7918469C
:203C600000F0E4F90346002B03D0FB79184600F0BBFAFB79002B02D10223FB7502E00223AB
:203C8000FB7500BFF979FB7B1A4692001A4493011A460B469B000B44DB0113440B4A1A44A8
:203CA000F87D0B4B00934FF4A0730121FDF7D8FC034618461837BD4680BD00BFF405002058
:203CC000FC050020F8050020F005002070030020D53C400080B586B002AF03463960FB7143
:203CE0001346BB71BB79022B02D10023FB7302E00023FB7300BFFB79002B36D1FB7B1D4AC5
:203D0000D35CDBB2002B0CBF01230023DBB2BB733B68002B16D1F97BBB7B1A4692001A4440
:203D200093011A460B469B000B44DB011344124A1A44B879114B00934FF4A0730121FDF7DB
:203D40008FFC13E0FA7BBB7B396888B20C4952001344024621F81320FB7B0A4A0021D154BD
:203D6000FB7B1846FFF73CFF00E000BF1037BD4680BD00BFF405002070030020D53C40005C
:203D8000F0050020FC05002080B584B000AF03463960FB711346BB71BB79812B02D100232C
:203DA000FB7302E00023FB7300BFFB79002B1DD1FB7BFA7B0F498A5CD2B2002A0CBF012211
:203DC0000022D2B211460C4A5B000B44002122F81310FB7B094A0021D154FB7B084A002190
:203DE000D154FB7B184600F00DF800E000BF1037BD4680BD840800208008002090080020A3
:203E00008C08002090B589B002AF0346FB710023FB71FB79664AD35CDBB2002B40F0C280FE
:203E2000FDF72CF90346002B09D0FB79614A32F81340FDF785F903469C420AD1B5E0FB7903
:203E40005C4A32F81340FDF76BF903469C4200F0AB80FFF7A3FC3861FB79574AD35CFB75C3
:203E6000FA79FB7D55495200134431F81330002B1FD1534B1B8801339AB2514B1A80FDF79E
:203E8000FDF8034683F00103DBB2002B03D04C4B1B88632B09D9FDF7F1F80346002B08D00F
:203EA000474B1B88B3F5487F03D23869FFF7A2FC7BE0434B00221A80FB79424AD35CDBB2F3
:203EC00083F00103DBB2002B0AD0FB79FA7D002A0CBF01220022D2B21146374AD15406E04D
:203EE000FB7D002B0CBF01230023DBB2FB75FB792F4A0121D1543869FFF77CFCFA79FB7DE2
:203F00002E495200134431F81330B3F5A07F14BF01230023FB73FB7B002B16D0FDF7AEF8A5
:203F20000346002B08D0FC79FDF70AF903461A46204B23F814200DE0FC79FDF7F1F80346DE
:203F40001A461C4B23F8142004E0FB79194A002122F81310FB79002B02D18123BB7502E00A
:203F60008123BB7500BFF979FB7D1A4692001A4493011A460B469B000B44DB011344124AB6
:203F80009C18FA79FB7D0D495200134431F813301A46F97BB87D0D4B009313462246FDF76E
:203FA0005FFB02E000BF00E000BF1C37BD4690BD8C0800208808002084080020800800200C
:203FC000920800209008002000060020893D400080B586B000AF0346FB710023FB71FFF7EF
:203FE000DDFB7861FB790E4A32F813307B82FB79FA790C498A5CD2B211460B4A5B000B44DE
:2040000032F813309BB21A467B8AD31AFB607869FFF7F0FBFB6818461837BD4680BD00BF68
:20402000F8050020F4050020F005002080B582B000AF0346FB71FB791846FFF7C9FF034691
:20404000002B14BF01230023DBB218460837BD4680BD000080B485B000AF78607B6803F0EB
:204060000703FB600C4BDB68BB60BA684FF6FF031340BB60FB681A02BB68134343F0BF6302
:2040800043F40033BB60044ABB68D36000BF1437BD465DF8047B704700ED00E080B582B02B
:2040A00000AF78607868FCF753FD00BF0837BD4680BD80B500AF0B20FFF7F0FF0C20FFF702
:2040C000EDFF00BF80BD80B48DB000AF78600B46FB707B68FB62FB7887F82B30FB6A7B6275
:2040E0007B6A3B623B6A5B09FB61FB6903F5001303F207735B02BB6197F82B30012B09D192
:20410000FB6A7B617B6903F01F0301229A40BB691A610CE097F82B30002B08D1FB6A3B61EE
:204120003B6903F01F0301229A40BB695A61FB6AFB60FB6803F01F0301229A40BB69C3F8D6
:20414000A02000BF3437BD465DF8047B704780B48BB000AF78600B46FB707B687B62FB7802
:2041600087F823307B6AFB61FB69BB61BB695B097B617B6903F5001303F207735B023B61F1
:2041800097F82330002B09D07B6AFB60FB6803F01F0301229A403B691A6308E07B6ABB607B
:2041A000BB6803F01F0301229A403B695A6300BF2C37BD465DF8047B704780B483B000AFA3
:2041C0000346FB71012318460C37BD465DF8047B704780B483B000AF0346FB7100BF0C370A
:2041E000BD465DF8047B704780B483B000AF0346FB7100BF0C37BD465DF8047B70470000D6
:2042000080B586B000AF786072B60023BB60BB6883F314880A4A7B689360094B9B687B61B4
:204220007B691B68FB60FB6883F308887B6904331B683B613B69984700BF1837BD4680BD48
:2042400000ED00E080B400AF034B044A5A6000BFBD465DF8047B704750140E4034213411BF
:2042600080B400AF044B4FF400425A6000BFBD465DF8047B704700BF50140E4080B500AF2B
:20428000FCF796FA0020FFF7E5FE06210020FEF7D1FC00BF80BD000080B485B000AF7860AD
:2042A0000023FB737B68BB60BB681B68B3F1FF3F1DD0BB6804331B68B3F1FF3F17D0BB6831
:2042C0001B680E4A934212D9BB681B680C4A93420DD2BB6804331B680A4A934207D9BB688A
:2042E00004331B68084A934201D20123FB73FB7B18461437BD465DF8047B704700000020AB
:20430000007D0220000040000000480080B500AFFFF7CFFE01211220FFF7D5FE012112205E
:20432000FFF715FF01211320FFF7CDFE00211320FFF70DFF00BF80BD80B500AF0F4B18466F
:20434000FFF7AAFF0346002B06D0FFF77BFF0B4B1846FFF755FF0FE0094B1846FFF79CFFD4
:204360000346002B06D0FFF77BFF054B1846FFF747FF01E0FFF7CAFF00BF80BD00004100BC
:204380000000450080B500AF0F4B1846FFF784FF0346002B06D0FFF763FF0B4B1846FFF777
:2043A0002FFF0FE0094B1846FFF776FF0346002B06D0FFF747FF054B1846FFF721FF01E098
:2043C000FFF7A4FF00BF80BD000045000000410080B483B000AF094B7B607B68084A934273
:2043E00005D27B681A1D7A6000221A60F5E700BF0C37BD465DF8047B704700BF007F02208A
:204400000080022080B582B000AFFFF737FF144B5B6803F44073002B14BF01230023FB713B
:204420000F4B5B6803F40073002B14BF01230023BB71FB79002B02D1BB79002B0BD0094B84
:204440001B681A46084B9A4202D1FFF79BFF01E0FFF772FF03E0FFF7BBFFFFF76DFFFEE7C5
:2044600000140E40007F02200000450070B50D4E0D4CA41BA4100025A54209D10B4E0C4C11
:2044800000F048F8A41BA4100025A54205D170BD56F8253098470135EEE756F8253098475B
:2044A0000135F2E7204540002045400020454000244540000100000002000000040000004E
:2044C000080000001000000020000000400000008000000000008000000000010000000261
:2044E0000000000400000008000000100000000000000000000000000000000000000000A0
:204500000000000000000000000000000000000000000000F8B500BFF8BC08BC9E4670471C
:20452000B5014000F8B500BFF8BC08BC9E4670475FF800F0010000205FF800F0A500002092
:204540008D01400080B489B000AFF860B9607A603B604FF48003BB613B68002B01D10223E4
:204560003CE0FB681B6843F48032FB681A60BB68DBB243F0B442FB685A60FB689B687B613B
:204580007B6903F00103012BF7D00023FB610CE0FB699B003A681344FA699200B9690A4485
:2045A00012681A60FB690133FB61FA69BB6A9A42EED37B68DBB243F0B442FB685A60FB68D5
:2045C0009B687B617B6903F00103012BF7D1FB681B6823F48032FB681A60002318462437C5
:2045E000BD465DF8047B704780B483B000AF786039607B683A681A6000BF0C37BD465DF84D
:20460000047B704780B485B000AF786039607B683A685A607B689B68FB60FB6803F0010301
:20462000012BF7D1FB6803F00E0318461437BD465DF8047B7047000000127A00010000005B
:2046400004030904546563686E69636120456E67696E656572696E67000000004D6564691D
:204660006120436F6E766572746572000003000000000000000000000000000000000000FE
:20468000000000000000000000000000000000000000000000000000213840004D3A4000BA
:2046A000A53A4000713B400000000000613940006D3A4000613B4000713B4000813B40006A
:2046C0001201000202000040EB030424000101020001000009024300020100803209040058
:2046E00000010202010005240010010424020205240600010524010301070583034000100E
:2047000009040100020A000000070581024000000705020240000000540100206801002062
:2047200090010020D40100207C010020DC01002000000000FFFFFFFFFFFFFFFFFFFFFFFF45
:20474000FFFFFFFFFFFFFFFFFFFFFFFFFFFFFFFFFFFFFFFFFFFFFFFFFFFFFFFFFFFFFFFF79
:20476000FFFFFFFFFFFFFFFFFFFFFFFFFFFFFFFFFFFFFFFFFFFFFFFFFFFFFFFFFFFFFFFF59
:20478000FFFFFFFFFFFFFFFFFFFFFFFFFFFFFFFFFFFFFFFFFFFFFFFFFFFFFFFFFFFFFFFF39
:2047A000FFFFFFFFFFFFFFFFFFFFFFFFFFFFFFFFFFFFFFFFFFFFFFFFFFFFFFFFFFFFFFFF19
:2080000055555555555555553802000000000000000000000000000000000000000000007E
:2080200000000000AB11627854FB0400010000000000000000000000000000000000000056
:20804000000000000000000000000000000000000000000000000000000000000000000020
:20806000000000000000000000000000000000000000000000000000000000000000000000
:208080000000000000000000000000000000000000000000000000000000000000000000E0
:2080A0000000000000000000000000000000000000000000000000000000000000000000C0
:2080C0000000000000000000000000000000000000000000000000000000000000000000A0
:2080E000000000000000000000000000000000000000000000000000000000000000000080
:2081000000000000000000000000000000000000000000000000000000000000000000005F
:2081200000000000000000000000000000000000000000000000000000000000000000003F
:2081400000000000000000000000000000000000000000000000000000000000000000001F
:208160000000000000000000000000000000000000000000000000000000000000000000FF
:208180000000000000000000000000000000000000000000000000000000000000000000DF
:2081A0000000000000000000000000000000000000000000000000000000000000000000BF
:2081C00000000000000000000000000000000000000000000000000000000000000000009F
:2081E00000000000000000000000000000000000000000000000000000000000000000007F
:2082000000000000000000000000000000000000000000000000000000000000000000005E
:20822000000000000000000000000000000500000000000000000000FFFFFFFFFFFFFFFF41
:20824000FFFFFFFFFFFFFFFFFFFFFFFFFFFFFFFFFFFFFFFFFFFFFFFFFFFFFFFFFFFFFFFF3E
:20826000FFFFFFFFFFFFFFFFFFFFFFFFFFFFFFFFFFFFFFFFFFFFFFFFFFFFFFFFFFFFFFFF1E
:20828000FFFFFFFFFFFFFFFFFFFFFFFFFFFFFFFFFFFFFFFFFFFFFFFFFFFFFFFFFFFFFFFFFE
:2082A000FFFFFFFFFFFFFFFFFFFFFFFFFFFFFFFFFFFFFFFFFFFFFFFFFFFFFFFFFFFFFFFFDE
:20C000000000000000000000380200000000000000000000000000000000000000000000E6
:20C0200000000000AB11627854FB0400010000000000000000000000000000000000000016
:20C040000000000000000000000000000000000000000000000000000000000000000000E0
:20C060000000000000000000000000000000000000000000000000000000000000000000C0
:20C080000000000000000000000000000000000000000000000000000000000000000000A0
:20C0A000000000000000000000000000000000000000000000000000000000000000000080
:20C0C000000000000000000000000000000000000000000000000000000000000000000060
:20C0E000000000000000000000000000000000000000000000000000000000000000000040
:20C1000000000000000000000000000000000000000000000000000000000000000000001F
:20C120000000000000000000000000000000000000000000000000000000000000000000FF
:20C140000000000000000000000000000000000000000000000000000000000000000000DF
:20C160000000000000000000000000000000000000000000000000000000000000000000BF
:20C1800000000000000000000000000000000000000000000000000000000000000000009F
:20C1A00000000000000000000000000000000000000000000000000000000000000000007F
:20C1C00000000000000000000000000000000000000000000000000000000000000000005F
:20C1E00000000000000000000000000000000000000000000000000000000000000000003F
:20C2000000000000000000000000000000000000000000000000000000000000000000001E
:20C22000000000000000000000000000000000000000000000000000FFFFFFFFFFFFFFFF06
:20C24000FFFFFFFFFFFFFFFFFFFFFFFFFFFFFFFFFFFFFFFFFFFFFFFFFFFFFFFFFFFFFFFFFE
:20C26000FFFFFFFFFFFFFFFFFFFFFFFFFFFFFFFFFFFFFFFFFFFFFFFFFFFFFFFFFFFFFFFFDE
:20C28000FFFFFFFFFFFFFFFFFFFFFFFFFFFFFFFFFFFFFFFFFFFFFFFFFFFFFFFFFFFFFFFFBE
:20C2A000FFFFFFFFFFFFFFFFFFFFFFFFFFFFFFFFFFFFFFFFFFFFFFFFFFFFFFFFFFFFFFFF9E
:020000040041B9
:2000000020A500208D1F4100891F4100891F4100891F4100891F4100891F41000000000081
:2000200000000000000000000000000071184100891F410000000000E11841004519410034
:20004000891F4100891F4100891F4100891F4100851F4100891F4100891F4100E517420007
:20006000891F4100891F410000000000E1244100ED244100891F4100891F4100891F41005B
:20008000891F4100891F4100891F4100891F4100891F4100891F4100891F4100891F410018
:2000A000891F4100891F4100891F4100891F4100891F41004D224100891F4100000000001A
:2000C000000000000000000000000000000000000000000000000000000000000000000020
:2000E00000000000000000000000000000000000000000000000000000000000891F410017
:20010000B92C4100891F4100000000000000000000000000000000000000000000000000D0
:200120000000000000000000000000000000000000000000000000000000000000000000BF
:200140000000000000000000044B05481B1A062B02D9044B03B11847704700BF47F144006E
:2001600044F144000000000005490648091A891001EBD171491002D0034B03B1184770473D
:2001800044F1440044F144000000000010B5064C237843B9FFF7D8FF044B13B10448AFF3F1
:2001A00000800123237010BDB80A00200000000044F1440008B5084B1BB108490848AFF3C1
:2001C00000800848036813B9BDE80840CCE7064B002BF9D09847F7E700000000BC0A002090
:2001E00044F1440044F144000000000000F108034FF0FF310022816002604360C360036113
:20020000704700BF00230361704700BF4368026810B49C688C609C684B6001326160996006
:200220005DF8044B08610260704700BF30B40D686B1C11D000F1080200E01A4653681C689E
:20024000A542FAD204684B60013499608A6051600861046030BC704702695368F2E700BFDD
:2002600042688168036910B4916081685C684A601A68A04208BF5960013A002101611A6057
:2002800018685DF8044B704770B51646026C856B04462AB906686EB301351046A56370BD27
:2002A00086B9406819F06FFF6368216CA2680B449342636005F1010524BF236863603046F4
:2002C000A56370BDC06819F05EFF226CE3682168524213448B42E36002D2A3681A44E2607F
:2002E000022E03D001350020A56370BD05B901250020D3E7806801F09FF80135A660CDE752
:2003000070B5054601F0C6FA95F8454064B2002C16DD6B6AA3B105F1240605E0013CE3B275
:200320005CB26BB16B6A5BB1304600F091FF0028F4D0013C01F016F8E3B25CB2002BF1D104
:20034000FF2385F8453001F0BBFA01F0A3FA95F8444064B2002C16DD2B69A3B105F110061B
:2003600005E0013CE3B25CB26BB12B695BB1304600F06EFF0028F4D0013C00F0F3FFE3B289
:200380005CB2002BF1D1FF2385F84430BDE8704001F096BA38B504460D4601F07BFA206C3D
:2003A000E36B2268626003FB00F3181A002113440244FF20A163A36084F84400E26084F81E
:2003C0004500BDB923691BB901F07AFA012038BD04F1100000F03CFF0028F5D00B4B4FF0D5
:2003E00080521A60BFF34F8FBFF36F8F01F068FA012038BD04F11000FFF7F8FE04F12400FE
:20040000FFF7F4FE01F05CFA012038BD04ED00E02DE9F04784B0002504468A4601921F460E
:20042000A84600F0ABFFDFF8FC9027E001F048FA00F05CFD01F02EFA94F84430FF2B08BF44
:2004400084F8448094F84530FF2B08BF84F8458001F036FA01A902A800F040FF002850D13C
:2004600001F018FAA26BE36B9A4217D001F028FA2046FFF745FF00F0FBFD012501F00AFAA5
:20048000A26BE36B9A4220D3022F1ED0019E96B3002DCBD102A800F015FFC7E701F010FA0B
:2004A000019904F1100000F0C3FE2046FFF728FF00F0DEFD0028E0D14FF08053C9F80030C2
:2004C000BFF34F8FBFF36F8FD7E73A4651462046FFF7DAFE636AEBB938B1124B4FF080520B
:2004E0001A60BFF34F8FBFF36F8F01F0E9F9012004B0BDE8F08701F0E3F9304604B0BDE8E2
:20050000F0872046FFF7FCFE00F0B2FD002004B0BDE8F08704F1240000F09AFE0028DCD109
:20052000E3E700BF04ED00E070B582B050230193019B019B0C46A9B100250121064684F810
:200540004610E163246025642046FFF723FFA5602560E56084F84C602B462A4629462046C9
:20056000FFF756FF204602B070BD00BF38B50446856800F0FDFE854201D0002038BDE36825
:20058000013BE3600BB1012038BD20461A461946FFF73EFF012038BD2DE9F04385B04FF0DF
:2005A000000804460191454600F0E8FE4746DFF850910CE001F06EF9A36B002B37D001F03C
:2005C0007FF92046FFF79CFE00F052FD012501F061F9A36B002B51D1019E002E5DD0002D7B
:2005E0003FD001F06DF900F081FC01F053F994F84430FF2B08BF84F8447094F84530FF2B9F
:2006000008BF84F8457001F05BF901A902A800F065FE0028CED02046FFF772FE00F028FD4F
:2006200001F038F9A36B03B301F04AF9CEE701F047F92368002B37D0019904F1240000F05A
:20064000F7FD2046FFF75CFE00F012FD0028BDD14FF08053C9F80030BFF34F8FBFF36F8FF8
:20066000B4E702A800F02EFEBBE701F029F9B8F1000F22D1404605B0BDE8F0832268013BA0
:20068000A363002A38D023693BBB01F019F94FF00108404605B0BDE8F08301F011F9B04611
:2006A000404605B0BDE8F08301F0F4F8A06800F075FE804601F004F9BEE701F0EBF8616AA7
:2006C00019B1236B1968C1F11801A06800F0F0FE4FF0000801F0F4F8CCE704F1100000F0C4
:2006E000B7FD0028D1D0064B4FF080521A60BFF34F8FBFF36F8FC8E700F020FFA060C2E7FA
:2007000004ED00E070B5044685680E4600F030FE854208D031462046FFF73EFF10B1E3687F
:200720000133E36070BDE3680133E360012070BD2DE9F843044601F0ADF8364A364D136856
:20074000013313602B68002B36D0344F3B6853B3E06ADFF8EC80DFF8ECC0314EDCF800207F
:20076000316801230132834000EB80000B43626408EB8000211D3360CCF80020FFF746FDE6
:2007800001F09EF83B6863B12A68E36AD26A9A4207D2244B4FF080521A60BFF34F8FBFF30F
:2007A0006F8FBDE8F8832B68E06ADB6ADFF89080834298BF2C60CEE72C601368012B04D0AE
:2007C000E06ADFF87C80154FC5E7DFF87480464608F5F07730461436FFF708FDBE42F9D1AC
:2007E000DFF86490104E0D4F4846FFF7FFFC3046FFF7FCFC0D48FFF7F9FC0D48FFF7F6FC14
:200800000C48FFF7F3FC0C4A0C4BC2F80090E06A1E60A0E7C00C0020D40A0020200D002022
:20082000D00C002004ED00E0E80C00200C0D0020380D0020240D0020D80A0020DC0A0020E0
:20084000E00A0020CC0C0020D40C0020F8B51D4B1D4D1C682A682B680027064682F86670AB
:20086000181D0F46FFF7FCFC40B92B681749D86A0B680122824023EA02030B60731C17D087
:200880002B68A4195C600BD2114B186829680431FFF7CCFC0F4B1A68944238BF1C60F8BD35
:2008A0000D4B18682968BDE8F8400431FFF7BEBC002FE5D0296809480431BDE8F840FFF77F
:2008C000A5BC00BF4C0D0020D40A0020D00C0020D80A0020000D0020DC0A0020240D0020FF
:2008E000034A044B1268D26812681A60704700BFD80A0020000D00202DE9F0470A9C099E75
:200900004FEA82094A4607460D46206BA521984619F061FC236BA9F10409994429F0070913
:20092000C4F84090002D36D06B1E05F1090104F13302587802F8010F13F8010F08B18B42CA
:20094000F7D1002384F83D30089B172B28BF17230025E362E364201D25659A46FFF752FC21
:2009600004F11800FFF74EFCCAF11803A3616565A565E565256684F8645084F866502461C0
:20098000646242463946484600F05AFF206006B13460BDE8F08784F83450D5E790F8652003
:2009A00012B1012A0AD0704710B50446006B01F099F82046BDE8104001F094B801F092B8E9
:2009C00080B5164CDFF860A0154E164DDFF85C904FF0805811E000F05DFFF368DF68381DD5
:2009E000FFF73EFC2B68013B2B602368013B236000F066FF3846FFF7D1FF2368002BEAD119
:200A0000DAF80030012B05D9C9F80080BFF34F8FBFF36F8F01F0B4FAEFE700BFC40C002025
:200A2000380D0020C00C0020E00A002004ED00E0104A114B002110B411601B68B3FA83F3D8
:200A4000DBB2C3F11F030D4A03EB83039B00D11803F108004C68D35863684B600244934278
:200A600008BF5B68064A08BF4B60DB6813605DF8044B7047500D0020D00C0020E00A002096
:200A8000D40A0020F0B587B068240E9D0494049C0D9C049EA5B184B12C6302270C9C029540
:200AA00005AE009485F865700196FFF725FF2846FFF73EFE059807B0F0BD204607B0F0BD81
:200AC000284607B0F0BD00BF70B504462C4D00F0E1FE002C51D0261D3046FFF7C1FB30B92D
:200AE000E26A284902EB82039B00CB582BB3A36A1BB104F11800FFF7B3FB234A2968136828
:200B00008C4203F1010313602ED0204A13682046013B1360FFF742FF1D4B1B681B68ABB99B
:200B20001C4B4FF0FF321A6000F0CAFE1A4B1B6813B12B689C420CD070BD18480121036899
:200B400001FA02F223EA02020260D0E7FFF7C8FEEAE7134A134B12684FF080521A60BFF37D
:200B60004F8FBFF36F8F70BD31460F48FFF74EFB0E4A136801331360D6E72C68ABE700BF91
:200B8000D40A0020E00A0020CC0C0020C00C0020D80A0020000D0020200D0020D00C0020F1
:200BA000C80C002004ED00E0380D0020C40C0020F8B5164B1B6898421CD0044600F06AFE22
:200BC000134A144B166865691F6800F079FEB5420ED0BD420CD0104B9D4207D00F4B9D4225
:200BE0000AD0002D0CBF04200120F8BDA36A2BB10220F8BD0020F8BD0420F8BD94F864309B
:200C0000012B0CBF02200320F8BD00BFD40A0020D80A0020DC0A0020240D0020380D002068
:200C200070B50446334E00F035FE002C57D0251D2846FFF715FB30B9E26A2F4902EB820379
:200C40009B00CB58CBB1A36A1BB104F11800FFF707FB294629482A4DFFF7D8FA94F864303D
:200C6000012B04BF002384F8643000F029FE2B6863B933689C4218D070BD22480121036807
:200C800001FA02F223EA02020260DCE700F002FE1D4B1B681B6823BB1C4B4FF0FF321A60A2
:200CA00000F00EFE33689C42E6D12B6863B91349174A0968126891421AD0164B1B689BB1C4
:200CC000154B01221A6070BD124A144B12684FF080521A60BFF34F8FBFF36F8F70BD346821
:200CE000A5E7FFF7FDFDDBE7BDE87040FFF7A0BE336070BDD40A0020E00A0020240D0020F4
:200D0000200D0020D00C0020D80A0020000D0020C00C0020C80C0020500D002004ED00E02D
:200D2000F8B51E4D2B6898420BD050B1044600F0B1FD1B4B62699A4204D0BDE8F84000F0BC
:200D4000BFBDF8BDA36A174A9342F6D0002BF4D1271D154E3846FFF783FAE26AD6F800C0F7
:200D600012480123934002EB820243EA0C0300EB820039463360FFF749FA2B68E26ADB6A99
:200D80009A42DAD30A4B4FF080521A60BFF34F8FBFF36F8FBDE8F84000F092BDD40A002090
:200DA000240D00200C0D0020D00C0020E00A002004ED00E02DE9F041054600F055FEEFF31B
:200DC00011864FF0100383F31188BFF36F8FBFF34F8F204B6A699A4205D0002486F31188B6
:200DE0002046BDE8F081AC6A1B488442F5D0002CF3D11A4B1B6823BB194AE96A1268194F25
:200E0000D26A914228BF184B05F1040828BF012440462CBF1C601C46FFF722FAEA6A13485B
:200E20003D680123934002EB82022B43414600EB82003B60FFF7EAF986F311882046BDE8B2
:200E4000F08105F11801FFF7E1F986F311882046BDE8F081240D00200C0D0020C80C002036
:200E6000D40A0020D00C0020500D0020E00A002030B589B0002407AA06A905A8059406946F
:200E800001F06EF805A807C823460290019100940F491048FFF7F6FD0F4B1860A0B100F0B2
:200EA0004FFE4FF0100383F31188BFF36F8FBFF34F8F0A480A4A0B4B4FF0FF35012105604E
:200EC00011601C6000F06AFD074B1B6809B030BDA0AD4200C1094100FC0C0020000D002064
:200EE000200D00204C0D002080000020024A136801331360704700BFC80C0020014B1868E8
:200F0000704700BF4C0D0020014B1868704700BFFC0C00202DE9F04F4A4B1B6883B0002BAD
:200F20007CD1494B1E6801361E60002E40D0474B0193019B1B689E4254D3454DDFF82881F9
:200F4000DFF82891434F002429E02B68DB68D3F80CB0DBF804200BF1040A964250466BD338
:200F6000FFF77EF9DBF828200BF118000AB1FFF777F9DBF82C003B680122824000EB8000C2
:200F80001A43514608EB80003A60FFF73FF9D9F80010DBF82C20CB6A9A4228BF01242B6872
:200FA0001B68002BD1D1019A4FF0FF3313601EE0274D294B2968294A09682968186828606E
:200FC00019601368013313602B681B68002B36D11E4B01931A464FF0FF331360019B1B68CE
:200FE0009E42AAD2DFF88080DFF880900024D9F800301B49DB6A03EB83039B0058F8032087
:201000000B68022A28BF01249BB1164B1B68002B18BF0124204603B0BDE8F08F104A1368BC
:201020000133136000F094FF0024204603B0BDE8F08F00F08DFFE8E7019B1A60D7E7FFF710
:201040004FFC74E7C80C00204C0D0020000D0020D80A0020D00C0020DC0A0020040D00201B
:20106000080D0020500D0020E00A0020D40A00202DE9F84F384C236800F00CFC2368013B8B
:2010800023602368002B5DD1344A1268002A59D09A46DFF8E490DFF8E4B0314EDFF8E08052
:2010A000304F22E0DBF80C30D3F80CA00AF104040AF11800FFF7D4F82046FFF7D1F8DAF85A
:2010C0002C00326805FA00F300EB80001343214608EB80003360FFF799F83B68DAF82C20E2
:2010E000DB6A9A4228BFC9F80050DBF800300125002BD7D1BAF1000F07D01B4B1B681B68DE
:2011000033BB1A4B4FF0FF321A60194E346844B10125FFF7FFFE08B1C9F80050013CF8D1B1
:201120003460D9F800306BB1124B4FF080521A60BFF34F8FBFF36F8F012400F0C1FB20469F
:20114000BDE8F88F002400F0BBFB2046BDE8F88FFFF7C6FBD9E700BFC80C0020C00C0020F1
:20116000D00C0020D40A0020D80A0020000D0020080D002004ED00E0500D00200C0D00208A
:20118000E00A002008B540B90A4B4FF080521A60BFF34F8FBFF36F8F08BD074B1A681A6854
:2011A00001321A600021FFF751FBFFF761FF0028EAD008BD04ED00E0C80C002038B50D461D
:2011C00038B1044600F066FB6565BDE8384000F077BB044B1C6800F05DFB6565BDE8384080
:2011E00000F06EBBD40A002010B538B1044600F051FB646D00F064FB204610BD044B1C687E
:2012000000F048FB646D00F05BFB204610BD00BFD40A0020044B1B680BB9FFF709BC034BF5
:2012200001221A60704700BFC80C0020500D002010B5064B1B680C4603F11801FEF7F6FF48
:2012400020460121BDE81040FFF700BBD40A0020F8B5C368DC6804F118052846FFF700F8D8
:20126000124B1B68EBB9261D114D3046FEF7F8FFE26A2F680F480123934002EB82023B43C7
:20128000314600EB82002B60FEF7C0FF0A4BE26A1B68DB6A9A4283BF084B01201860002098
:2012A000F8BD29460648FEF7B1FFEFE7C80C0020D00C0020E00A0020D40A0020500D0020CC
:2012C0000C0D0020034A044B12681B6880E80C00704700BF040D00204C0D0020F8B50546B0
:2012E0000E461D4C00F0D6FA1C480268236893F86630B3B931684C1C1CD0DFF864C02C680F
:20130000DCF800706B68BC4201D09A4202D2D21A8A4214D300233360012400F0D1FA20469C
:20132000F8BD2368002283F86620012400F0C8FA2046F8BD1C4600F0C3FA2046F8BD8A1A8A
:20134000DCF8001003683260002485E80A0000F0B7FA2046F8BD00BFD40A00204C0D00201F
:20136000040D0020014B01221A607047500D0020014B1868704700BFD40A0020054B1B680C
:2013800033B1054B1B68002B0CBF02200020704701207047200D0020C80C002018B3F8B516
:2013A000224CC36A2268D26A934214D28269002A04DB2268D26AC2F1180282611C4D426993
:2013C00003EB830305EB83039A420DD02368DB6AC3620120F8BD2368C06CDB6A98422CBFDE
:2013E00000200120F8BD7047071D06463846FEF737FF104B30B9F06A1A680121814022EA18
:2014000001021A602268D3F800C0D06AF062012404FA00F200EB800005EB800042EA0C0284
:2014200039461A60FEF7F2FE2046F8BDD40A0020E00A0020D00C0020002831D0F8B5C16AAE
:20144000036DC26C174C013B91422468036500D00BB10020F8BD071D04463846FEF700FF47
:20146000114A30B9E06A13680121814023EA01031360E36CD2F800C00C48E362012505FA65
:2014800003F63946C3F1180703EB830346EA0C0600EB8300A7611660FEF7B8FE2846F8BD91
:2014A00000207047D40A0020D00C0020E00A0020002833D0C26CF8B59142C36A38BF1146FD
:2014C0008B4202D0026D012A00D0F8BD8269184D184CC162002A03EB830342692468A8BF3B
:2014E000C1F1180105EB8303A8BF81619A42ECD1071D04463846FEF7B3FE80B1E06A0E4E60
:2015000001238340326800EB8000134305EB800039463360BDE8F840FEF778BE7047064EF4
:20152000E06A32680123834022EA03023260E9E7E00A0020D40A0020D00C0020044B1A6898
:201540001AB119680A6D01320A651868704700BFD40A00202DE9F041254D04461F468846FC
:20156000164600F097F92B68234493F86430022B0DD02B6803EB840301211A6E22EA0802A4
:201580001A662B68234483F86410069B23BB00F097F900F07FF92FB12B6804F1180253F8AE
:2015A00022303B602B68234493F86430022B0AD000272B681C44002384F8643000F080F968
:2015C0003846BDE8F0812B6803EB840301271A6E22EA06061E66ECE71846FFF737F9054B7C
:2015E0004FF080521A60BFF34F8FBFF36F8FCEE7D40A002004ED00E02DE9F041069C054668
:20160000884617461E4600F045F924B108F1180355F82330236005EB0802022392F86440B4
:2016200082F86430E4B2042E04D8DFE806F005433D0F0D00234B1B68012C0DD0012400F08A
:201640003FF92046BDE8F081022C39D008F11801012C45F82170F1D12F1D1B4E3846FEF7A8
:20166000FFFDEB6AD6F800C0184804FA03F203EB830342EA0C0200EB830039463260FEF716
:20168000C5FD134BEA6A1B68DB6A9A42D6D9114B4FF080521A60BFF34F8FBFF36F8F00F06C
:2016A0000FF92046BDE8F08105EB88010B6E01330B66C1E705EB88010B6E1F430F66BBE7FC
:2016C0000024BCE74C0D0020D00C0020E00A0020D40A002004ED00E02DE9F843089C0546B5
:2016E00088461746994600F0BFF9EFF311864FF0100383F31188BFF36F8FBFF34F8F24B149
:2017000008F1180355F82330236005EB0802022392F8644082F86430E4B2B9F1040F04D808
:20172000DFE809F005342E0E0C00274B1B68012C0CD0012086F31188BDE8F883022C40D0D9
:2017400008F11801012C45F82170F2D11F4B1B6813B305F118011E48FEF758FD1D4BEA6A8B
:201760001B68DB6A9A42E4D9099B13B1099A01231360194B0120186086F31188BDE8F88337
:2017800005EB88010B6E01330B66D0E705EB88010B6E1F430F66CAE72F1D3846FEF760FD65
:2017A0000E4AEB6AD2F800C00D489C4003EB830344EA0C04394600EB83001460FEF726FD96
:2017C000CCE70020B6E700BF4C0D0020C80C00200C0D0020D40A0020500D0020D00C0020BD
:2017E000E00A002082B0002301934FF0100383F31188BFF36F8FBFF34F8F019B002BFCD0C2
:2018000002B0704708480068006880F308884FF0000080F3148862B661B6BFF34F8FBFF37D
:201820006F8F00DF00BF000008ED00E0DFF80C00016841F4700101607047000088ED00E0D8
:2018400030B421F001014FF08075074C40F80C4C6FF0020340F8202C00E9220040F8243CEF
:2018600030BC4438704700BFE517410000000000074B19680868B0E8F04F80F30988BFF37D
:201880006F8F4FF0000080F311887047AFF30080D40A00204FF0100383F31188BFF36F8F17
:2018A000BFF34F8F044A13680133012B136004BF024B1B68704700BF8400002004ED00E07E
:2018C000034A1368013B13600BB983F3118870478400002000000000000000000000000063
:2018E000EFF30980BFF36F8F154B1A681EF0100F08BF20ED108A20E9F04F10602DE9090079
:201900004FF0100080F31188BFF34F8FBFF36F8FFFF780FC4FF0000080F3118809BC196829
:201920000868B0E8F04F1EF0100F08BFB0EC108A80F30988BFF36F8F704700BFAFF30080EA
:20194000D40A002008B54FF0100383F31188BFF36F8FBFF34F8FFFF7DDFA18B1034B4FF008
:2019600080521A60002383F3118808BD04ED00E030B4064B064D0748074C002207211A6065
:201980002A600460196030BC704700BF10E000E018E000E014E000E0BFD4010010B52C4B32
:2019A0002C4A2D48116812681A7884B0D2B2FF21029219701B78DBB28DF807309DF807301A
:2019C0009DF80730072202601A063ED5062200E00A469DF807305B00DBB28DF807309DF820
:2019E00007301B0602F1FF31F2D4120202F4E0620299174C0260194BCAB222701A6842F4D0
:201A000070021A601A6842F070421A60FFF7B0FF134B00241C60FFF709FF124A136843F04F
:201A200040431360FFF7EEFEFFF7F4FB03944FF0100383F31188BFF36F8FBFF34F8F039B13
:201A4000002BFCD0002004B010BD4FF4E062CFE700E400E000ED00E0540D002020ED00E0B4
:201A60008400002034EF00E0EFF305830F2B84BF024A9B5C024B1B68704700BFF0E300E09C
:201A80000CED00E010B4154A00E01A4613688342FBD351685418A0420AD041684418A34231
:201AA0000DD0904203605DF8044B18BF106070474068014410464418A3425160F1D1084C27
:201AC0002468A342EDD018CB90422144036041605DF8044B18BF1060704700BF680D0020C4
:201AE000580D002040B1124A50F8043C1268134202D050F8081C01B1704723EA020310B53F
:201B000040F8043C0446FFF7F1F90A4A54F8043C1168A4F108000B441360FFF7B3FF064A73
:201B20001368BDE8104001331360FFF7A1BA00BF5C0D0020600D0020640D0020FFF798B990
:201B400008B500F077F9BDE8084016F0A5BC00BF10B5094B1C68C4F3080482B014B10220DC
:201B600002B010BD02460146009423462046FFF7F1FC204602B010BD04ED00E0174B1A6877
:201B8000824201D80320704770B582B00E46054600F0D2F9FFF70CF8032810D0104B1C6839
:201BA000C4F308046CB9284600F0C6F90096234622462146FFF720FD204602B070BD0720D3
:201BC000FBE70024284600F0B7F900960194234622462146FFF780FD2046EEE708AE4200E8
